:020000040800F2
:1000000088030020B50B0008230100082501000823
:1000100027010008290100082B010008000000004A
:100020000000000000000000000000002D0100089A
:100030002F01000800000000310100083301000812
:10004000CB0B0008CB0B0008CB0B0008CB0B000838
:10005000CB0B0008CB0B0008CB0B0008CB0B000828
:10006000CB0B0008CB0B0008CB0B0008CB0B000818
:10007000CB0B0008CB0B0008CB0B0008CB0B000808
:10008000CB0B0008CB0B0008CB0B0008CB0B0008F8
:10009000CB0B0008CB0B0008CB0B0008CB0B0008E8
:1000A000CB0B0008CB0B0008CB0B0008CB0B0008D8
:1000B000CB0B0008CB0B0008CB0B0008CB0B0008C8
:1000C000CB0B0008CB0B0008CB0B0008CB0B0008B8
:1000D000CB0B00082D0D0008BD0D0008CB0B000850
:1000E000CB0B0008CB0B0008CB0B0008DFF80CD0C3
:1000F00001F018FB004800470101000888030020B8
:100100004FF4A06000F094FE00F06CFD00F0A4FD40
:1001100000F09CF900F0C2FC00F024FC00F0D1FBE0
:10012000FCE77047FEE7FEE7FEE7FEE77047704733
:1001300070477047B0F1807F01D30120704720F0F5
:100140007F414FF0E020491E41611D4AF02182F8B5
:10015000141D00218161072101610020704701B554
:10016000184801681848B1FBF0F0FFF7E3FF0020E2
:100170004FF0E02103E00A69D203FCD5401C009A4D
:100180009042F8D3086920F00100086108BD01B56C
:100190000C4801684FF47A70B1FBF0F0FFF7CAFF2A
:1001A00000204FF0E02103E00A69D203FCD5401C97
:1001B000009A9042F8D3086920F00100086108BD58
:1001C0000FE000E00000002040420F008D4A024492
:1001D000401C917180B2704770B50446894815463D
:1001E0002044801D00F01CFA601980B270BD0346E7
:1001F00010B50020024605E013F8014B521C2044C4
:10020000C0B292B28A42F7D310BD70B57D4D55236E
:100210002B70AA236B70A970E870100A28716A719C
:10022000D21D94B2601E81B22846FFF7E0FF291963
:1002300001F8010C002C07D003E0287800F0D6FB71
:100240006D1C641EA4B2F8D270BD10B500246EA05F
:1002500000F0D1F982B26CA12046FFF7BDFFC4B215
:100260006BA000F0C8F982B269A12046FFF7B4FF85
:10027000C4B26CA000F0BFF982B26AA12046FFF7B9
:10028000ABFFC4B269A000F0B6F982B267A1204604
:10029000FFF7A2FFC4B267A000F0ADF982B265A17A
:1002A0002046FFF799FFC4B264A000F0A4F982B21F
:1002B00062A12046FFF790FFC4B261A000F09BF955
:1002C00082B25FA12046FFF787FFC2B20321BDE8DB
:1002D0001040012099E72DE9F84F4A498246363906
:1002E00001EB0A06F0780124564B0F2829D2DFE8EB
:1002F00000F008181B1F272A2C28672828282828E0
:100300006B001978002031B10121FFF75FFFC2B205
:100310000321002011E00021FFF758FFC2B21C703A
:10032000F6E7BDE8F84F90E700220321022004E041
:10033000B079D870002203210846BDE8F84F64E781
:100340005C70BDE8F88F9C70FBE77079317900250F
:1003500040EA012B31E02B480AEB0501363808440E
:10036000017A407A741900EB012014F8067F1FFA15
:1003700080F9A078E17894F8018001EB002080B248
:10038000009000F087FB024600202F4905E011F89D
:1003900010C0BC4503D0401CC0B29042F7D301EB63
:1003A00040004178414504D1211D3846009A00F0B3
:1003B00020FB05EB0900001D85B25D45CBD3C0E7EE
:1003C000BDE8F84F00F014BBB079F179BDE8F84F03
:1003D00000F062BB1B48D0E90110814201D001202E
:1003E000704700207047174AD2E90131994208D07E
:1003F0000448814201D317389060916811F8010BCD
:1004000091607047820000207B2270223A22000017
:10041000786577613171796673756F79747667780D
:1004200000000000222C2276223A2200312E302EAB
:1004300030000000222C226D223A00003200000021
:100440007D000000140000206617000838B5012167
:10045000082000F084FF4020ADF8000010208DF847
:10046000030003204E4C8DF802006946204600F040
:100470008EFD8021ADF800106946204600F087FD12
:10048000A115ADF800106946204600F080FD611509
:10049000ADF800106946204600F079FD38BD4148AE
:1004A0000021C0F89811C0F89C11C0F8A011C0F844
:1004B000A41170472DE9F0413B4E3A4D00244FF412
:1004C0008077305DC0F3C001C5F8A411C0F380018E
:1004D000C5F8A011C0F34001C5F89C1100F001005F
:1004E000C5F898013846FFF73AFE641CE4B2042CC4
:1004F000E7D3BDE8F041D2E72DE9F0412A4E0024D0
:10050000284D361D4FF48077305DC0F3C001C5F82B
:10051000A411C0F38001C5F8A011C0F34001C5F8D3
:100520009C1100F00100C5F898013846FFF717FE4E
:10053000641CE4B2042CE7D3BDE8F041AFE710B58A
:100540000024FFF7ACFFFFF7B5FF641CA4B28C2CAE
:10055000F9D94FF47A70FFF71AFE0024FFF7CCFFA9
:10056000641CA4B28C2CF9D9BDE8104097E710B5F3
:10057000FFF795FF0024FFF79DFF641CA4B28C2CAD
:10058000F9D900F003FB0A20FFF701FE0024FFF772
:10059000B3FF641CA4B28C2CF9D9BDE810407EE7EF
:1005A000000C01400080214221000020A0F1300217
:1005B000092A01D8D0B20BE0A0F14102052A01D8E6
:1005C000373804E0A0F16102052A01D85738C0B2DB
:1005D0000007020EA1F13000092807D9A1F141035B
:1005E0002738052B02D9203B052B00D8C1B201F0DA
:1005F0000F00104370470021002806D000E0491C7E
:1006000010F8012B002AFAD10846704710B5031ED6
:1006100005D001E003F8011B521E92B2FAD210BDC0
:1006200030B538B131B1884202D98C18844212D227
:10063000002305E0002030BDCD5CC5545B1C9BB29F
:100640009342F9D330BD8B1813F8014C8318521E16
:1006500003F8014C92B2002AF5D130BD10B109B1B6
:10066000034604E00020704700F8012B491C0A787B
:10067000002AF9D1002101701846704701E0401CA2
:10068000491C03781BB10A780AB19342F7D0097864
:10069000D8B2401A7047020E0A70020C4A70020A61
:1006A0008A70C870704701780A02417811430A02C3
:1006B0008178C078114340EA0120704770B50D463B
:1006C000C1491446024609780020012914D0114678
:1006D000FFF77CFD0021FFF779FD210AFFF776FD8A
:1006E000E1B2FFF773FD22462946FFF775FD02468A
:1006F00003210720FFF789FD012070BD10B50C46CE
:10070000B149024600200978012914D01146FFF7AB
:100710005DFD0121FFF75AFD0021FFF757FD012183
:10072000FFF754FD4CB10121FFF750FD02460321B4
:100730000720FFF76AFD012010BD0021F4E710B586
:100740000C46A14902460020097801291ED0114615
:10075000FFF73CFD0221FFF739FD0021FFF736FDD1
:100760000421FFF733FD210EFFF730FDC4F30741ED
:10077000FFF72CFDC4F30721FFF728FDE1B2FFF7D7
:1007800025FD024603210720FFF73FFD012010BD94
:1007900070B50D468C49144602460978002001299F
:1007A00014D01146FFF712FD0321FFF70FFD210AB8
:1007B000FFF70CFDE1B2FFF709FD22462946FFF7DE
:1007C0000BFD024603210720FFF71FFD012070BD2E
:1007D00010B50C467C49024600200978012913D047
:1007E0001146FFF7F3FC0421FFF7F0FC0021FFF7AF
:1007F000EDFC0121FFF7EAFC2146FFF7E7FC02468A
:1008000003210720FFF701FD012010BD70B50C4644
:100810006D49024600200978012923D01146FFF7CF
:10082000D5FC0521FFF7D2FC0021FFF7CFFC210A00
:100830001AD0210CC4F3072518D00421FFF7C6FCF9
:10084000210EFFF7C3FCC4F30741FFF7BFFC2946A5
:10085000FFF7BCFCE1B2FFF7B9FC02460321072019
:10086000FFF7D3FC012070BD0121F1E70221ECE785
:10087000007870470078704715E7544910B5544B1D
:100880000A681968541A012C0DD0914202D98A1AAB
:10089000172A08D24F4A914202D3A2F117011960D8
:1008A00001F8010B196010BD70B50E460546002415
:1008B00004E0285DFFF7E1FF641CA4B2B442F8D362
:1008C00070BD2DE9F0410024434E444F06E0FFF790
:1008D0008AFD014638883154401C388038881F28EA
:1008E00003D2FFF777FD0028F1D13888072837D3E6
:1008F00027E0305D552801D0641C06E030194278AD
:10090000AA2AF9D1827812B1A41CA4B219E0027902
:1009100043791202D21D1A4495B2262D0BD8A94252
:1009200013DB691E89B2FFF762FC2544A91911F88F
:10093000011C884201D0E41CE7E72046FFF7CBFC0E
:10094000ACB23888011B0729D3DA3888001B0204AF
:10095000120C3A8004D03119BDE8F0411E485FE620
:10096000BDE8F0811B481A4917380860174908602C
:100970001549002008701A49FF200870704719486F
:1009800000787047174900200870024603210420B0
:10099000FFF73BBC144800787047134A10B5014676
:1009A00000201070FFF712FCC2B20321BDE8104016
:1009B0000520FFF72ABC0A4800787047002203216F
:1009C0000E20FFF722BC0000200000201C000020A9
:1009D00018000020820000204C0000202A00002087
:1009E00017000020150000201600002000F0CAB9F2
:1009F00070472DE9F0410F460025012614460146B7
:100A0000072832D00EDC01291FD0022924D0032868
:100A100019D138461146FFF72FFF01460320FFF793
:100A20008EFE0DE0082927D009292CD014280AD1E0
:100A300038461146FFF71CFF01461420FFF75EFE03
:100A4000012807D02846BDE8F08139460120FFF78C
:100A500035FEF5E73046F6E7FFF789FD38462146D3
:100A6000FFF706FF01460220E8E738461146FFF788
:100A7000FFFE01460720E1E738461146FFF7F8FE82
:100A800001460820DAE738461146FFF7F1FE014635
:100A90000920D3E70D2070477047000038B50121C9
:100AA000042000F05CFC1020ADF800008DF803007D
:100AB00003203D4C8DF802006946204600F067FA9D
:100AC0002021ADF800106946204600F060FA402170
:100AD000ADF800106946204600F059FA8021ADF8C3
:100AE00000106946204600F052FA38BD2F48002118
:100AF000C0F89011C0F89411C0F89811C0F89C117A
:100B000070472DE9F0412A4E284D00244FF480779C
:100B1000305DC0F3C001C5F89C11C0F38001C5F879
:100B20009811C0F34001C5F8941100F00100C5F818
:100B300090013846FFF713FB641CE4B2042CE7D3A2
:100B4000BDE8F041D2E72DE9F041194E0024174DE0
:100B5000361D4FF48077305DC0F3C001C5F89C119D
:100B6000C0F38001C5F89811C0F34001C5F8941195
:100B700000F00100C5F890013846FFF7F0FA641C58
:100B8000E4B2042CE7D3BDE8F041AFE710B5002490
:100B9000FFF7ACFFFFF7B5FF641CA4B2652CF9D9D1
:100BA000BDE81040A2E7000000080140000021421B
:100BB0002C00002005480047FEE7FEE7FEE7FEE7C1
:100BC000FEE7FEE7FEE7FEE7FEE7FEE7ED000008D2
:100BD000704792490A885206FCD5904AC1B2121D4C
:100BE0001180704710B586B0012144F2040000F076
:100BF000B6FB4FF40070ADF8100003208DF8120022
:100C00001820874C8DF8130004A9204600F0BFF986
:100C10002115ADF8101004218DF8131004A92046F9
:100C200000F0B5F94FF4E13000900020ADF8040079
:100C3000ADF80600ADF80800ADF80C000C20774CBC
:100C4000ADF80A006946204600F008FC0121204664
:100C500000F077FC06B010BD30B5012187B0480424
:100C600000F086FB0121042000F079FB0424ADF89C
:100C7000104003208DF812001820694D8DF81300E4
:100C800004A9284600F083F90821ADF810108DF86A
:100C9000134004A9284600F07AF926208DF81400A4
:100CA00000248DF8154001208DF816008DF81700EE
:100CB00005A800F0C2F84FF41650ADF804400090BB
:100CC000ADF80640ADF80840ADF80C400C20554C8E
:100CD000ADF80A006946204600F0C0FB012240F250
:100CE0002551204600F037FC0121204600F029FC68
:100CF00007B030BD10B5494C0146204600F077FCE6
:100D00008021204600F0D4FC0028F9D010BD70B539
:100D1000424D04462021284600F0CAFC002804D099
:100D2000284600F068FC2070012070BD70B53B4C77
:100D300040F22551204600F0C5FC00280ED0204688
:100D400000F059FC384AC1B21088030406D44404A8
:100D50004FF0000306D50A2901D0138070BD40F47E
:100D600000400DE00D2909D0C0F30D042F4D401CAB
:100D700080B229551080C728EFD870BD40F480405C
:100D8000108070BD10B5274C0146204600F02FFCA6
:100D90008021204600F08CFC0028F9D010BD70B5F1
:100DA000204D04462021284600F082FC002804D073
:100DB000284600F020FC2070012070BD10B51948B5
:100DC00000F019FCC4B22046FFF757FD2146BDE8EC
:100DD0001040124800F00BBC08B500208DF8000050
:100DE0000E4C04E09DF80010204600F000FC684620
:100DF000FFF78DFF0028FAD0F4E708B500208DF842
:100E00000000084C04E09DF80010204600F0EFFBC5
:100E10006846FFF7C4FF0028FAD0F4E70038014025
:100E2000000801400044004034000020B9000020C8
:100E30002849084328490860704730B50F23C27815
:100E400001780125F2B1244A126801F1E02102F48F
:100E5000E062C2F5E062120AC2F10404D3404278B3
:100E6000A24084781C401443220181F800240078B9
:100E700000F01F018D404009800000F1E020C0F823
:100E8000005130BD01F01F0085404809800000F18D
:100E9000E020C0F8805130BD104A114001430E4897
:100EA000001F016070470C4A121D0029116801D013
:100EB000014300E08143116070474FF0E0210428B6
:100EC000086903D020F004000861704740F0040076
:100ED000FAE700000000FA050CED00E080FFFF1FBC
:100EE0008F4910B5884206D10121042000F049FA4B
:100EF000002104203BE08B49884206D101210820D3
:100F000000F03FFA0021082031E08749884206D1ED
:100F10000121102000F035FA0021102027E083493C
:100F2000884206D10121202000F02BFA0021202048
:100F30001DE07F49884206D10121402000F021FABE
:100F40000021402013E07B49884206D10121802006
:100F500000F017FA0021802009E0774988420AD181
:100F600084150121204600F00CFA00212046BDE83E
:100F7000104000F006BA10BD10B50121084600F07F
:100F800000FA0021BDE81040012000F0FAB9F0B5E8
:100F9000CC78002204F00F03E40601D58C782343BB
:100FA0000C784FF00F0C14F0FF0F4FF0010E1BD018
:100FB00005680E880EFA02F42640A64210D196006B
:100FC0000CFA06F725EA070703FA06F5CE783D4343
:100FD000282E02D0482E02D002E0446100E00461D5
:100FE000521C082AE5D305600A88FF2A1CD94468E8
:100FF000002202F108060EFA06F50E882E40AE42D7
:101000000ED196000CFA06F7BC4303FA06F7CE7829
:101010003C43282E00D14561CE78482E00D1056191
:10102000521C082AE5D34460F0BD4FF6FF710180E1
:10103000022181700421C17070470246002092682D
:101040000A4200D001207047806880B27047024693
:101050000020D2680A4200D001207047C06880B2E8
:10106000704701617047416170470AB10161704783
:1010700041617047C160704741F480328261816193
:1010800082618169806970472C4B10B51A684FF6F0
:101090008074224042EA00100843186010BD2849BD
:1010A000C8617047F0B5254C002801DAE36900E01B
:1010B0006368450D2E0185B2C0F30157B540C0F3FA
:1010C0000342032F05D0C6020AD503269640B34338
:1010D00007E023F07062636823F07063636002E0EE
:1010E000AB4343F0706201B12A43002801DAE261A8
:1010F000F0BD6260F0BD10B58A0721F003040F490E
:10110000120F21440F238C6893409C438C608B68A2
:10111000904003438B6010BD0949C1F8DC00704763
:1011200000080140000C0140001001400014014083
:1011300000180140001C0140002001400000014057
:1011400000002042A548016841F0010101604168AA
:10115000A34A114041600168A24A11400160016840
:1011600021F480210160416821F4FE0141604FF4C7
:101170001F018160704799490A6822F480320A6031
:101180000A6822F480220A60B0F5803F07D0B0F5EB
:10119000802F03D1086840F4A020086070470868D9
:1011A00040F48030F9E70346002059098B4A0129B1
:1011B0000AD002290AD0516A03F01F02012393408A
:1011C0000B4200D0012070471168F5E7116AF3E780
:1011D00018B500204FF4A06400903120FFF7E3FF22
:1011E0000099491C0091A14201D00028F5D031207E
:1011F000FFF7D9FF002800D0012018BD774A1168F9
:1012000021F0F80141EAC00010607047764908609B
:101210007047724B5A68084322F47C12104358609E
:1012200070477149086670476C4A516821F00301A4
:101230000143516070476948406800F00C007047F6
:10124000664A516821F0F001014351607047634ADA
:10125000516821F4E0610143516070475F4A516871
:1012600021F4605141EAC000506070475B4A002998
:10127000517A01D0014300E08143517270475A49CD
:10128000C1F8D8007047554A516821F440410143E4
:10129000516070475149002281F8202081F82020B8
:1012A000012802D0042802D1052081F820007047CF
:1012B0004E490860704749490A6A02430A6270470A
:1012C0004A4944390860704730B5444A5168484B30
:1012D00011F00C0103D0042901D0082901D00360CA
:1012E00012E05168536801F470114FF0020413F4D6
:1012F000803F04EB914102D053689B0301D53D4BE5
:1013000000E03B4B5943016051680F2303EA111180
:10131000394B5C5C0168E14041605468072505EA8F
:1013200014241C5D21FA04F48460546805EAD42472
:101330001B5DD940C1605268032303EA92322E4BF1
:101340001B1F9A5CB1FBF2F1016130BD234A0029F9
:10135000516901D0014300E08143516170471F4A48
:101360000029916901D0014300E0814391617047F8
:101370001A4A0029D16901D0014300E08143D161BB
:101380007047164A0029D16801D0014300E081432B
:10139000D1607047114A0029116901D0014300E072
:1013A00081431161704711494039086070470E4907
:1013B000C86470470949C87170470848416A41F0DC
:1013C000807141627047054A0146002092680A42D6
:1013D00000D0012070470149887270470010024018
:1013E0000000FFF8FFFFF6FE000042428004424288
:1013F00000127A0000093D003A000020C44910B5EF
:1014000088420AD101218C032046FFF7BAFF20460B
:10141000BDE810400021FFF7B4BFBE49884202D1A9
:1014200001214C0410E0BC49884202D101218C0406
:101430000AE0BA49884202D10121CC0404E0B8494B
:1014400088420AD101210C052046FFF7A3FF204660
:10145000BDE810400021FFF79DBF10BD30B5044628
:10146000008A85B00D464CF6FF710840E9880143BB
:101470002182A0894EF6F3110840A9882A891143D8
:101480006A8902431143A181A08A4FF6FF410840B7
:10149000A9890143A1826846FFF716FF9C48844250
:1014A00001D1039800E00298A189090400EBC00172
:1014B00001EB0010296801D5490000E08900B0FB6C
:1014C000F1F06422B0FBF2F109010B096FF018058D
:1014D0006B4300EB8300A3891D044FF0320306D554
:1014E00003EBC000B0FBF2F000F0070005E003EBF7
:1014F0000010B0FBF2F000F00F000843208105B0AF
:1015000030BD4FF41651016000218180C1800181FE
:101510000C2242818181704710B5028A4FF2FF038D
:101520001A400B884C8823438C88C9880C4323437A
:101530001343038210BD0021018041808180C1805E
:1015400070470029818902D041F4005101E021F463
:1015500000518181704710B5C1F3421301F01F049F
:101560000121A140012B07D0022B07D01430002A03
:10157000026805D00A4304E00C30F8E71030F6E7C3
:101580008A43026010BD002A828A01D00A4300E02B
:101590008A4382827047028A22F00F020282028A04
:1015A0000A4302827047828922F400628281828922
:1015B0000A43828170470029818902D041F00201EB
:1015C00001E021F0020181817047028A22F02002AD
:1015D0000282028A0A43028270470029018A02D0ED
:1015E00041F4804101E021F4804101827047C1F360
:1015F0000801818070478088C0F3080070478189A6
:1016000041F0010181817047028BD2B20283028BCB
:1016100042EA012101837047028B02F47F42028378
:10162000028B0A43028370470029818A02D041F06D
:10163000200101E021F02001818270470029818A88
:1016400002D041F0100101E021F0100181827047C9
:101650000029818A02D041F0080101E021F008014F
:10166000818270470029818902D041F4004101E064
:10167000C1F30E01818170470029818A02D041F4B3
:10168000006101E021F4006181827047828A22F0CA
:1016900004028282828A0A43828270470029818AF8
:1016A00002D041F0020101E021F002018182704785
:1016B0000246002012880A4200D001207047C94328
:1016C0000180704770B501F01F0501260024C1F3A9
:1016D000421306FA05F2012B0FD0022B0FD0838A9A
:1016E0004FEA11210088134206FA01F600EA0600CB
:1016F00001D000B10124204670BD8389F0E7038A40
:10170000EEE70A0A01219140C943018070470000B9
:10171000003801400044004000480040004C0040B8
:1017200000500040064C074D06E0E06840F0010321
:1017300094E8070098471034AC42F6D3FEF7DAFC81
:1017400080170008A017000802E008C8121F08C18F
:10175000002AFAD170477047002001E001C1121F32
:10176000002AFBD1704701000201030207010801B2
:1017700009010A040B020C010D04100211021401EC
:10178000A0170008000000204C00000048170008C7
:10179000EC1700084C0000203C030000581700081C
:1017A00000A24A040000000000000000010203043F
:1017B000060708090000000000000000000000000B
:1017C000000C06030903060C090000000C060309BF
:1017D00003060C09000002040608000000000102D4
:0C17E000030401020304060708090000CE
:04000005080000ED02
:00000001FF
