:020000040800F2
:1000000030040020010100088B0800088D0800085A
:100010008F080008910800089308000800000000FD
:10002000000000000000000000000000950800082B
:100030009708000800000000990800089B080008C5
:100040001B0100081B0100081B0100081B01000820
:100050001B0100081B0100081B0100081B01000810
:100060001B0100081B0100081B0100081B01000800
:100070001B0100081B0100081B0100081B010008F0
:100080001B0100081B0100081B0100081B010008E0
:100090001B0100081B0100081B0100081B010008D0
:1000A0001B0100081B0100081B0100081B010008C0
:1000B0001B0100081B0100081B0100081B010008B0
:1000C0001B0100081B0100081B0100081B010008A0
:1000D0001B0100081B0100081B0100081B01000890
:1000E0001B0100081B0100081B010008DFF80CD0F1
:1000F00000F09AFC0048004749080008300400203E
:100100000648804706480047FEE7FEE7FEE7FEE7B1
:10011000FEE7FEE7FEE7FEE7FEE7FEE7C5010008B3
:10012000ED0000080CB500224C48009201920168D5
:1001300041F4803101604FF4A063016801F40031A3
:1001400001910099491C0091019911B900999942B6
:10015000F3D10168890333D50121019140490A682F
:1001600042F010020A600A6822F003020A600A687C
:1001700042F002020A6041684160416841604168A2
:1001800041F480614160416821F47C114160416823
:1001900041F4E8114160016841F08071016001683B
:1001A0008901FCD5416821F003014160416841F0BB
:1001B000020141604168C1F381010229FAD10CBDFD
:1001C00001920CBD254810B5016841F001010160A4
:1001D0004168244A114041600168234A114001608E
:1001E000016821F480210160416821F4FE01416031
:1001F0004FF41F018160FFF795FF1C494FF000602D
:10020000086010BD154A10B55068194B10F00C016C
:10021000184803D0042901D0082901D0036012E056
:100220005168536801F470114FF0020413F4803FD9
:1002300004EB914102D053689B0301D50E4B00E0C3
:100240000B4B5943016051680A4AC1F30311121D57
:10025000515C0268CA40026010BD000000100240FC
:10026000002002400000FFF8FFFFF6FE08ED00E06E
:1002700000127A000000002000093D0028490843D0
:1002800028490860704730B50F23C27801780125EE
:10029000F2B1244A126801F1E02102F4E062C2F5F1
:1002A000E062120AC2F10404D3404278A24084788A
:1002B0001C401443220181F80024007800F01F0143
:1002C0008D404009800000F1E020C0F8005130BDB1
:1002D00001F01F0085404809800000F1E020C0F8CF
:1002E000805130BD104A114001430E48001F01608B
:1002F00070470C4A121D0029116801D0014300E02B
:100300008143116070474FF0E0210428086903D051
:1003100020F004000861704740F00400FAE7000094
:100320000000FA050CED00E080FFFF1F8F4910B5BB
:10033000884206D10121042000F049FA002104205E
:100340003BE08B49884206D10121082000F03FFAAA
:100350000021082031E08749884206D10121102080
:1003600000F035FA0021102027E08349884206D1A9
:100370000121202000F02BFA002120201DE07F49E0
:10038000884206D10121402000F021FA00214020BE
:1003900013E07B49884206D10121802000F017FA42
:1003A0000021802009E0774988420AD18415012183
:1003B000204600F00CFA00212046BDE8104000F075
:1003C00006BA10BD10B50121084600F000FA002160
:1003D000BDE81040012000F0FAB9F0B5CC78002259
:1003E00004F00F03E40601D58C7823430C784FF01A
:1003F0000F0C14F0FF0F4FF0010E1BD005680E8894
:100400000EFA02F42640A64210D196000CFA06F726
:1004100025EA070703FA06F5CE783D43282E02D0D9
:10042000482E02D002E0446100E00461521C082A18
:10043000E5D305600A88FF2A1CD94468002202F12E
:1004400008060EFA06F50E882E40AE420ED1960032
:100450000CFA06F7BC4303FA06F7CE783C43282E85
:1004600000D14561CE78482E00D10561521C082A82
:10047000E5D34460F0BD4FF6FF7101800221817029
:100480000421C17070470246002092680A4200D0E1
:1004900001207047806880B2704702460020D26811
:1004A0000A4200D001207047C06880B270470161E5
:1004B0007047416170470AB10161704741617047FF
:1004C000C160704741F480328261816182618169DB
:1004D000806970472C4B10B51A684FF68074224023
:1004E00042EA00100843186010BD2849C8617047EF
:1004F000F0B5254C002801DAE36900E06368450D9A
:100500002E0185B2C0F30157B540C0F30342032F5B
:1005100005D0C6020AD503269640B34307E023F070
:100520007062636823F07063636002E0AB4343F082
:10053000706201B12A43002801DAE261F0BD626015
:10054000F0BD10B58A0721F003040F49120F2144B2
:100550000F238C6893409C438C608B6890400343CE
:100560008B6010BD0949C1F8DC00704700080140EC
:10057000000C01400010014000140140001801402F
:10058000001C01400020014000000140000020420A
:10059000A548016841F0010101604168A34A11408A
:1005A00041600168A24A11400160016821F4802184
:1005B0000160416821F4FE0141604FF41F01816038
:1005C000704799490A6822F480320A600A6822F466
:1005D00080220A60B0F5803F07D0B0F5802F03D1AC
:1005E000086840F4A02008607047086840F4803034
:1005F000F9E70346002059098B4A01290AD002294C
:100600000AD0516A03F01F02012393400B4200D02D
:10061000012070471168F5E7116AF3E718B500206B
:100620004FF4A06400903120FFF7E3FF0099491CCC
:100630000091A14201D00028F5D03120FFF7D9FF69
:10064000002800D0012018BD774A116821F0F80178
:1006500041EAC00010607047764908607047724BED
:100660005A68084322F47C1210435860704771495D
:10067000086670476C4A516821F0030101435160DC
:1006800070476948406800F00C007047664A51683E
:1006900021F0F001014351607047634A516821F431
:1006A000E0610143516070475F4A516821F4605135
:1006B00041EAC000506070475B4A0029517A01D07E
:1006C000014300E08143517270475A49C1F8D80094
:1006D0007047554A516821F44041014351607047C9
:1006E0005149002281F8202081F82020012802D0E1
:1006F000042802D1052081F8200070474E49086087
:10070000704749490A6A02430A6270474A494439B4
:100710000860704730B5444A5168484B11F00C01ED
:1007200003D0042901D0082901D0036012E05168E8
:10073000536801F470114FF0020413F4803F04EB8E
:10074000914102D053689B0301D53D4B00E03B4BE8
:100750005943016051680F2303EA1111394B5C5C66
:100760000168E14041605468072505EA14241C5DD6
:1007700021FA04F48460546805EAD4241B5DD9404E
:10078000C1605268032303EA92322E4B1B1F9A5C0E
:10079000B1FBF2F1016130BD234A0029516901D05A
:1007A000014300E08143516170471F4A002991696C
:1007B00001D0014300E08143916170471A4A00294A
:1007C000D16901D0014300E08143D1617047164AED
:1007D0000029D16801D0014300E08143D160704716
:1007E000114A0029116901D0014300E081431161E0
:1007F000704711494039086070470E49C864704716
:100800000949C87170470848416A41F080714162E6
:100810007047054A0146002092680A4200D0012034
:100820007047014988727047001002400000FFF8CD
:10083000FFFFF6FE000042428004424200127A00AE
:1008400000093D00180000204FF4A060FFF716FDDE
:1008500000F070F84FF47A7500F095F8002400F07D
:100860009DF8641CA4B28C2CF9D9284600F043F8FA
:10087000002400F0B2F8641CA4B28C2CF9D900F06A
:1008800082F8284600F037F8E6E77047FEE7FEE713
:10089000FEE7FEE77047704770477047B0F1807F12
:1008A00001D30120704720F07F414FF0E020491E26
:1008B00041611D4AF02182F8141D00218161072148
:1008C00001610020704701B5184801681848B1FB64
:1008D000F0F0FFF7E3FF00204FF0E02103E00A69AA
:1008E000D203FCD5401C009A9042F8D3086920F04E
:1008F0000100086108BD01B50C4801684FF47A7029
:10090000B1FBF0F0FFF7CAFF00204FF0E02103E059
:100910000A69D203FCD5401C009A9042F8D30869BA
:1009200020F00100086108BD0FE000E00000002099
:1009300040420F0038B501210820FFF736FF402064
:10094000ADF8000010208DF803000320334C8DF823
:10095000020069462046FFF740FD8021ADF80010F7
:1009600069462046FFF739FDA115ADF8001069462C
:100970002046FFF732FD6115ADF8001069462046AC
:10098000FFF72BFD38BD26480021C0F89811C0F8AC
:100990009C11C0F8A011C0F8A411704770B5214E89
:1009A0001F4D0024305DC0F3C001C5F8A411C0F391
:1009B0008001C5F8A011C0F34001C5F89C1100F0FA
:1009C0000100C5F898010220FFF795FF641CE4B20E
:1009D000042CE7D3BDE87040D5E770B5114E002474
:1009E0000F4D361D305DC0F3C001C5F8A411C0F332
:1009F0008001C5F8A011C0F34001C5F89C1100F0BA
:100A00000100C5F898010220FFF775FF641CE4B2ED
:100A1000042CE7D3BDE87040B5E70000000C0140AE
:100A20000080214228000020064C074D06E0E068C7
:100A300040F0010394E8070098471034AC42F6D325
:100A4000FFF758FB6C0A00088C0A000802E008C88F
:100A5000121F08C1002AFAD170477047002001E038
:100A600001C1121F002AFBD1704700008C0A000848
:100A700000000020300000004C0A0008BC0A0008FA
:100A800030000020000400005C0A000800A24A04B4
:100A9000000000000000000001020304060708092E
:100AA000020406080000000001020304010203041E
:0C0AB000060708090C06030903060C09E0
:04000005080000ED02
:00000001FF
